:100000000C9462000C9482040C945B040C948A009F
:100010000C948A000C948A000C948A000C948A0038
:100020000C948A000C948A000C948A000C948A0028
:100030000C948A000C948A000C948A000C948A0018
:100040000C9411040C948A000C94CF040C94A90411
:100050000C948A000C948A000C948A000C948A00F8
:100060000C948A000C948A000000000023002600F3
:10007000290000000000240027002A0000000000E2
:10008000250028002B0004040404040404040202D4
:100090000202020203030303030301020408102007
:1000A0004080010204081020010204081020000012
:1000B0000008000201000003040700000000000027
:1000C0000000E70711241FBECFEFD8E0DEBFCDBF91
:1000D00021E0A6E4B1E001C01D92AD3FB207E1F717
:1000E00011E0A0E0B1E0E2E0F9E102C005900D927C
:1000F000A634B107D9F710E0C2E6D0E004C02197DA
:10010000FE010E947F0AC136D107C9F70E9401058E
:100110000C947F0C0C940000833081F028F4813023
:1001200099F08230A9F008958730A9F08830C9F09D
:100130008430B1F4809180008F7D03C08091800075
:100140008F7780938000089584B58F7784BD08955C
:1001500084B58F7DFBCF8091B0008F778093B00006
:1001600008958091B0008F7DF9CF1F93CF93DF93D7
:10017000282F30E0F901E255FF4F8491F901E6564E
:10018000FF4FD491F901EA57FF4FC491CC23A9F056
:10019000162F81110E948C00EC2FF0E0EE0FFF1F54
:1001A000E458FF4FA591B4918FB7F894EC911111D9
:1001B00008C0D095DE23DC938FBFDF91CF911F91D4
:1001C0000895DE2BF8CFCF93DF9390E0FC01E65645
:1001D000FF4F24918A579F4FFC0184918823D1F0CF
:1001E00090E0880F991FFC01EE58FF4FA591B49144
:1001F000FC01E458FF4FC591D491623071F49FB770
:10020000F8943C91822F809583238C93E8812E2B48
:1002100028839FBFDF91CF9108958FB7F894EC9119
:100220002E2B2C938FBFF6CF0895AF92BF92CF9213
:10023000DF92EF92FF920F931F93CF93DF936C01A6
:100240007B018B01040F151FEB015E01AE18BF0887
:10025000C017D10759F06991D601ED91FC91019039
:10026000F081E02DC6010995892B79F7C501DF9151
:10027000CF911F910F91FF90EF90DF90CF90BF90A3
:10028000AF900895FC01538D448D252F30E0842FCD
:1002900090E0821B930B541710F0CF9608950197AE
:1002A0000895FC01918D828D981761F0A28DAE0F9B
:1002B000BF2FB11D5D968C91928D9F5F9F73928F22
:1002C00090E008958FEF9FEF08952FB7F8948091F5
:1002D000580190915901A0915A01B0915B012FBF33
:1002E0008093640190936501A0936601B0936701C8
:1002F0008CE591E00E94510197FF26C02FB7F8943A
:100300008091580190915901A0915A01B0915B01DF
:100310002FBF409164015091650160916601709119
:100320006701841B950BA60BB70B409160015091A0
:100330006101609162017091630184179507A607BE
:10034000B707B0F28FEF9FEF0895FC01918D828D7A
:10035000981731F0828DE80FF11D858D90E008959A
:100360008FEF9FEF0895FC01918D228D892F90E0F2
:10037000805C9F4F821B91098F73992708958CE5AC
:1003800091E00E94B30121E0892B09F420E0822F43
:10039000089580E090E0892B29F00E94BF0181112F
:1003A0000C9400000895FC01A48DA80FB92FB11D75
:1003B000A35ABF4F2C91848D90E001968F7399279B
:1003C000848FA689B7892C93A089B1898C91837079
:1003D00080648C93938D848D981306C00288F38972
:1003E000E02D80818F7D80830895EF92FF920F939F
:1003F0001F93CF93DF93EC0181E0888F9B8D8C8DD1
:1004000098131AC0E889F989808185FF15C09FB7C4
:10041000F894EE89FF896083E889F9898081837087
:10042000806480839FBF81E090E0DF91CF911F9136
:100430000F91FF90EF900895F62E0B8D10E00F5F57
:100440001F4F0F731127E02E8C8D8E110CC00FB62D
:1004500007FCFACFE889F989808185FFF5CFCE01C5
:100460000E94D301F1CFEB8DEC0FFD2FF11DE35A6C
:10047000FF4FF0829FB7F8940B8FEA89FB89808148
:100480008062CFCFCF93DF93EC01888D8823B9F0C2
:10049000AA89BB89E889F9898C9185FD03C080818F
:1004A00086FD0DC00FB607FCF7CF8C9185FFF2CF0C
:1004B000808185FFEDCFCE010E94D301E9CFDF918E
:1004C000CF910895CF93DF93EFECF0E08491EBEBC5
:1004D000F0E0D491E7EAF0E0C491CC2321F181115E
:1004E0000E948C00EC2FF0E0EE0FFF1FE859FF4F49
:1004F000A591B491EC91ED23B1F080914A019091D6
:100500004B01A0914C01B0914D010197A109B10996
:1005100080934A0190934B01A0934C01B0934D01FD
:10052000DF91CF91089580914A0190914B01A09164
:100530004C01B0914D010196A11DB11DE9CFCF93A2
:10054000DF93809106018636C1F461E088E00E9465
:10055000B50060E089E00E94B500C0910401D0912F
:10056000050161E085E00E94E300209761F460E00E
:1005700085E0DF91CF910C94B50060E088E00E94A7
:10058000B50061E0E7CFCF3FD10511F461E0F0CFD6
:10059000E3EBF0E0E491E33029F140F4E130B1F035
:1005A000E230D9F0C038D1058CF7E1CFE73021F146
:1005B000E83051F1E430B1F780918000806280939F
:1005C0008000D0938B00C0938A0004C084B58068FB
:1005D00084BDC7BDDF91CF91089584B5806284BD8D
:1005E000C8BDF8CF80918000806880938000D09350
:1005F0008900C0938800EECF8091B000806880931E
:10060000B000C093B300E6CF8091B00080628093C9
:10061000B000C093B400DECFFC0101900020E9F7E8
:100620003197AF01481B590BBC018CE591E00C944C
:1006300015018F929F92AF92BF920F931F93CF930A
:10064000DF93CDB7DEB7A1970FB6F894DEBF0FBE2C
:10065000CDBF19A2423008F44AE08E010F5D1F4F52
:10066000842E912CB12CA12CA50194010E945D0A2D
:10067000E62FB901CA01EA30F4F4E05DD801EE9347
:100680008D01232B242B252B79F790E080E0109708
:1006900019F0CD010E940C03A1960FB6F894DEBFAD
:1006A0000FBECDBFDF91CF911F910F91BF90AF9043
:1006B0009F908F900895E95CE1CF60E088E00E9410
:1006C000B50060E089E00E94B50061E085E00E942D
:1006D000E30060E085E00C94B500FC01808191812D
:1006E000009711F00C94210B0895EF92FF920F9355
:1006F0001F93CF93DF938617970769F1FC0124813D
:100700003581FB014481558124173507E1F4232B02
:1007100011F1FC0100811181FB01C081D181F8013F
:1007200081918F018823B9F0082E000C990B0E944B
:10073000670C7C018991082E000C990B0E94670CB4
:10074000E816F90661F380E0DF91CF911F910F91D8
:10075000FF90EF90089581E0F7CF0F931F93CF9311
:10076000DF93EC0188819981009759F02A813B81C0
:100770002617370730F081E0DF91CF911F910F915D
:1007800008958B016F5F7F4F0E94AA0B009759F06D
:10079000998388831B830A832C813D81232B59F7FE
:1007A000FC011082E8CF80E0E7CFEF92FF920F9339
:1007B0001F93CF93DF93EC017B01198218821B8278
:1007C0001A821D821C82FB0101900020E9F73197FB
:1007D0008F01061B170BB8010E94AD0328813981D8
:1007E000811113C02115310519F0C9010E94210B97
:1007F000198218821D821C821B821A82DF91CF917E
:100800001F910F91FF90EF9008951D830C83B70106
:10081000C901DF91CF911F910F91FF90EF900C9440
:10082000780C1F920F920FB60F9211242F933F93C3
:100830008F939F93AF93BF938091580190915901EB
:10084000A0915A01B0915B013091570123E0230F31
:100850002D3758F50196A11DB11D209357018093A6
:10086000580190935901A0935A01B0935B01809174
:10087000530190915401A0915501B09156010196F8
:10088000A11DB11D8093530190935401A093550174
:10089000B0935601BF91AF919F918F913F912F914E
:1008A0000F900FBE0F901F90189526E8230F029609
:1008B000A11DB11DD2CF1F920F920FB60F9211241E
:1008C0002F933F934F935F936F937F938F939F9358
:1008D000AF93BF93EF93FF93E0910201F091030177
:1008E0000995FF91EF91BF91AF919F918F917F916A
:1008F0006F915F914F913F912F910F900FBE0F908D
:100900001F9018951F920F920FB60F9211242F93DC
:100910003F934F935F936F937F938F939F93AF9387
:10092000BF93EF93FF93E0910001F09101010995CE
:10093000FF91EF91BF91AF919F918F917F916F91B7
:100940005F914F913F912F910F900FBE0F901F908D
:1009500018951F920F920FB60F9211242F933F9369
:100960004F935F936F937F938F939F93AF93BF93B7
:10097000EF93FF938CE591E00E94D301FF91EF91FB
:10098000BF91AF919F918F917F916F915F914F91A7
:100990003F912F910F900FBE0F901F9018951F92AF
:1009A0000F920FB60F9211242F938F939F93EF9373
:1009B000FF93E0916C01F0916D018081E0917201F3
:1009C000F091730182FD1BC09081809175018F5F52
:1009D0008F7320917601821741F0E0917501F0E06C
:1009E000E45AFE4F958F80937501FF91EF919F918F
:1009F0008F912F910F900FBE0F901F9018958081AF
:100A0000F4CFCF93DF93CDB7DEB72C970FB6F89422
:100A1000DEBF0FBECDBF789484B5826084BD84B53F
:100A2000816084BD85B5826085BD85B5816085BDE9
:100A300080916E00816080936E00109281008091A1
:100A40008100826080938100809181008160809329
:100A50008100809180008160809380008091B1004E
:100A600084608093B1008091B00081608093B00079
:100A700080917A00846080937A0080917A0082600D
:100A800080937A0080917A00816080937A008091CF
:100A90007A00806880937A001092C100E0916C0126
:100AA000F0916D0182E08083E0916801F09169012D
:100AB0001082E0916A01F0916B0180E180831092D5
:100AC0007401E0917001F091710186E08083E09102
:100AD0006E01F0916F01808180618083E0916E01F1
:100AE000F0916F01808188608083E0916E01F091C8
:100AF0006F01808180688083E0916E01F0916F01C9
:100B000080818F7D808361E085E00E94E30061E069
:100B100088E00E94E30061E089E00E94E30062E077
:100B200080E20E94E30062E081E20E94E3000E9412
:100B30005D0380E0A82E80E0B82E92E6792E26E6AE
:100B4000622E8CE591E00E94B301892B09F4BFC0AD
:100B500018861F821A8619861C861B8670E060E044
:100B6000CE0107960E94AD032F81388581112EC0DA
:100B70002115310519F0C9010E94210B18861F8229
:100B80001C861B861A8619860E94650197FD26C061
:100B90008A30910519F189831A820B851C850F5FB4
:100BA0001F4FB801CE0107960E94AD03882361F361
:100BB0002F8138858B859C85BE016F5F7F4F820FAB
:100BC000931F0E94780C1C870B87DECF1C861B8628
:100BD00064E471E0C9010E94780CD6CFCF80D8843C
:100BE000C114D10431F00B851C8576010115110566
:100BF000D9F46FE171E0CE0101960E94D503BE01E8
:100C00006F5F7F4FCE0107960E947503182FCE01AC
:100C100001960E946D031123E9F1F1E0F093520176
:100C20000E949F0250C0740147018FEF881A980AF2
:100C3000F7018081082E000C990B0E945008892B27
:100C400091F7015011090C0D1D1DF8018081082E2E
:100C5000000C990B0E945008892B31F00E151F05CE
:100C600018F001501109F1CFA8014F5F5F4F4E19E5
:100C70005F095C874B87CE14DF0420F4B701C601FF
:100C80000E946F0CEF81F8858B859C85E80FF91F1A
:100C90001082AFCF62E271E0CE0101960E94D503CF
:100CA000BE016F5F7F4FCE0107960E947503182F1C
:100CB000CE0101960E946D03112309F4ADC010927C
:100CC00052010E945D03CE0107960E946D032FB76B
:100CD000F8948091580190915901A0915A01B091D6
:100CE0005B012FBF40914E0150914F016091500127
:100CF00070915101841B950BA60BB70B883C910595
:100D0000A105B10508F47CC0F89460914A01709186
:100D10004B0180914C0190914D0110924A0110922B
:100D20004B0110924C0110924D0178940E94600882
:100D300020E030E040E85AE30E94BF0820E030E0C5
:100D400048E453E40E94BF08609346017093470152
:100D5000809348019093490188E291E00E940C033E
:100D6000C0900401D09005010D2C000CEE08FF0886
:100D70004AE0C701B601F7FE0DC06DE28CE591E0D7
:100D80000E94F50166277727CB016C197D098E0932
:100D90009F094AE00E9419038FE291E00E940C0330
:100DA00081E391E00E940C03C0904601D09047017E
:100DB000E0904801F0904901A7019601C701B601F2
:100DC0000E94580A882309F470C086E391E00E94CB
:100DD0000C0382E491E00E940C032FB7F8948091F9
:100DE000580190915901A0915A01B0915B012FBF18
:100DF00080934E0190934F01A0935001B093510105
:100E0000A114B10409F49DCE0E94BF01882309F406
:100E100098CE0E94000095CE64E271E0CE0101966A
:100E20000E94D503BE016F5F7F4FCE0107960E94DF
:100E30007503182FCE0101960E946D03112341F016
:100E40006092060180915201882309F43CCFE8CEDC
:100E500066E271E0CE0101960E94D503BE016F5F8C
:100E60007F4FCE0107960E947503182FCE01019681
:100E70000E946D03112319F070920601E3CF8F8158
:100E80009885009771F00E9414086F3F71058105E5
:100E9000910511F008F017CF7093050160930401DC
:100EA000D1CF60E070E0CB01F7CF16012701E894C5
:100EB00057F82FEF3FEF4FE75FE7C201B1010E9404
:100EC000580A81110DC02FEF3FEF4FE75FE7C201D6
:100ED000B1010E94590818161CF48AE391E077CFFB
:100EE0002FEF3FEF4FE75FE4C701B6010E94530ABF
:100EF00018161CF48EE391E06ACF2FEF3FEF4FE717
:100F00005FECC701B6010E94590887FDF3CF20E0CE
:100F100030E0A901C701B6010E94590887FF09C046
:100F20006DE28CE591E00E94F501F7FAF094F7F894
:100F3000F0942AE037ED43EA5BE3C701B6010E9473
:100F4000B8091B012C010E94240A6B017C010E943C
:100F50005E089B01AC01C201B1010E94B7091B01EF
:100F60002C014AE0C701B6010E9419036EE28CE52C
:100F700091E00E94F50120E030E040E251E4C2013E
:100F8000B1010E94BF081B012C010E94240A6B01C1
:100F9000F12CE12C4AE0C701B6010E941903C701F8
:100FA000B6010E945E089B01AC01C201B1010E9422
:100FB000B70920E030E040E251E40E94BF080E94FF
:100FC000240A90E080E04AE00E94190302CFECE599
:100FD000F1E01382128288EE93E0A0E0B0E0848317
:100FE0009583A683B78381E191E09183808385EC2B
:100FF00090E09587848784EC90E09787868780ECE3
:1010000090E0918B808B81EC90E0938B828B82ECD3
:1010100090E0958B848B86EC90E0978B868B118E7D
:10102000128E138E148E08951F93FC019927882722
:10103000BC01E89411911032E9F3193010F01E3020
:10104000C8F31B3251F01D3249F4689406C00E9467
:101050003B08610F711D811D911D119110531A30B4
:10106000B0F33EF490958095709561957F4F8F4FCA
:101070009F4F1F910895592F482F372F262F660F06
:10108000771F881F991F660F771F881F991F620F90
:10109000731F841F951F660F771F881F991F089560
:1010A00091110C942C09803219F089508550C8F7A1
:1010B00008950E949B0808F481E00895E89409C00F
:1010C00097FB3EF490958095709561957F4F8F4F7B
:1010D0009F4F9923A9F0F92F96E9BB279395F69591
:1010E000879577956795B795F111F8CFFAF4BB0F0F
:1010F00011F460FF1BC06F5F7F4F8F4F9F4F16C073
:10110000882311F096E911C0772321F09EE8872FFC
:10111000762F05C0662371F096E8862F70E060E0B8
:101120002AF09A95660F771F881FDAF7880F969531
:10113000879597F90895990F0008550FAA0BE0E8D5
:10114000FEEF16161706E807F907C0F01216130689
:10115000E407F50798F0621B730B840B950B39F4C9
:101160000A2661F0232B242B252B21F408950A262F
:1011700009F4A140A6958FEF811D811D08950E945D
:10118000D2080C9446090E94380938F00E943F09A1
:1011900020F0952311F00C942F090C94350911249B
:1011A0000C947A090E94570970F3959FC1F3950F2B
:1011B00050E0551F629FF001729FBB27F00DB11DDB
:1011C000639FAA27F00DB11DAA1F649F6627B00D6B
:1011D000A11D661F829F2227B00DA11D621F739F54
:1011E000B00DA11D621F839FA00D611D221F749F62
:1011F0003327A00D611D231F849F600D211D822FA9
:10120000762F6A2F11249F5750409AF0F1F08823CF
:101210004AF0EE0FFF1FBB1F661F771F881F9150FC
:101220005040A9F79E3F510580F00C942F090C9473
:101230007A095F3FE4F3983ED4F3869577956795F6
:10124000B795F795E7959F5FC1F7FE2B880F911D26
:101250009695879597F9089599278827089597F97E
:101260009F6780E870E060E008959FEF80EC08954C
:1012700000240A9416161706180609060895002475
:101280000A9412161306140605060895092E0394EF
:10129000000C11F4882352F0BB0F40F4BF2B11F463
:1012A00060FF04C06F5F7F4F8F4F9F4F089557FDC2
:1012B0009058440F551F59F05F3F71F04795880FC4
:1012C00097FB991F61F09F3F79F08795089512165B
:1012D00013061406551FF2CF4695F1DF08C0161607
:1012E00017061806991FF1CF8695710561050894B8
:1012F0000895E894BB2766277727CB0197F90895CF
:101300002F923F924F925F926F927F928F929F9215
:10131000AF92BF92CF92DF92EF92FF920F931F9303
:10132000CF93DF93CDB7DEB7CA1BDB0B0FB6F894B4
:10133000DEBF0FBECDBF09942A88398848885F84F4
:101340006E847D848C849B84AA84B984C884DF8065
:10135000EE80FD800C811B81AA81B981CE0FD11D49
:101360000FB6F894DEBF0FBECDBFED010895505803
:10137000BB27AA270E94CF090C9446090E9438096E
:1013800038F00E943F0920F039F49F3F19F426F409
:101390000C9435090EF4E095E7FB0C942F09E92F26
:1013A0000E94570958F3BA17620773078407950715
:1013B00020F079F4A6F50C9479090EF4E0950B2E43
:1013C000BA2FA02D0B01B90190010C01CA01A00197
:1013D0001124FF27591B99F0593F50F4503E68F1F2
:1013E0001A16F040A22F232F342F4427585FF3CF33
:1013F000469537952795A795F0405395C9F77EF404
:101400001F16BA0B620B730B840BBAF09150A1F04C
:10141000FF0FBB1F661F771F881FC2F70EC0BA0FD2
:10142000621F731F841F48F4879577956795B7955A
:10143000F7959E3F08F0B0CF9395880F08F0992755
:10144000EE0F9795879508950E945F0988F09F5742
:1014500098F0B92F9927B751B0F0E1F0660F771FD8
:10146000881F991F1AF0BA95C9F714C0B13091F0CE
:101470000E947909B1E008950C947909672F782FBB
:101480008827B85F39F0B93FCCF386957795679593
:10149000B395D9F73EF490958095709561957F4FFF
:1014A0008F4F9F4F08950E949B0808F48FEF089577
:1014B0000E949B08880B990B0895A1E21A2EAA1B83
:1014C000BB1BFD010DC0AA1FBB1FEE1FFF1FA217F4
:1014D000B307E407F50720F0A21BB30BE40BF50BF1
:1014E000661F771F881F991F1A9469F7609570957A
:1014F000809590959B01AC01BD01CF010895EE0F41
:10150000FF1F0590F491E02D09940F931F93CF9343
:10151000DF938230910510F482E090E0E091FB01CE
:10152000F091FC0130E020E0B0E0A0E0309799F4C9
:101530002115310509F44AC0281B390B2430310527
:10154000D8F58A819B816115710589F1FB0193832F
:101550008283FE0111C040815181028113814817AD
:101560005907E0F04817590799F4109761F012965F
:101570000C93129713961C933296CF01DF91CF9163
:101580001F910F9108950093FB011093FC01F4CF7C
:101590002115310551F04217530738F0A901DB013D
:1015A0009A01BD01DF01F801C1CFEF01F9CF90939E
:1015B000FC018093FB01CDCFFE01E20FF31F81936D
:1015C00091932250310939832883D7CF2091F90193
:1015D0003091FA01232B41F42091090130910A0145
:1015E0003093FA012093F90120910701309108010D
:1015F0002115310541F42DB73EB740910B015091B3
:101600000C01241B350BE091F901F091FA01E2176E
:10161000F307A0F42E1B3F0B2817390778F0AC0115
:101620004E5F5F4F2417350748F04E0F5F1F5093F2
:10163000FA014093F901819391939FCFF0E0E0E0AC
:101640009CCFCF93DF930097E9F0FC013297138290
:101650001282A091FB01B091FC01ED0130E020E08D
:101660001097A1F420813181820F931F2091F901FD
:101670003091FA012817390709F061C0F093FA0197
:10168000E093F901DF91CF910895EA01CE17DF07CA
:10169000E8F54A815B819E0141155105B1F7E901E9
:1016A000FB83EA8349915991C40FD51FEC17FD07BD
:1016B00061F4808191810296840F951FE9019983DD
:1016C0008883828193819B838A83F0E0E0E0129695
:1016D0008D919C9113970097B9F52D913C9111979D
:1016E000CD010296820F931F2091F9013091FA01EA
:1016F0002817390739F6309751F51092FC011092EE
:10170000FB01B093FA01A093F901BCCFD383C2834C
:1017100040815181840F951FC817D90761F44E5F2E
:101720005F4F88819981480F591F518340838A8177
:101730009B81938382832115310509F0B0CFF0930B
:10174000FC01E093FB019ECFFD01DC01C0CF1382C1
:101750001282D7CFB0E0A0E0E0EBFBE00C9482096E
:101760008C01009751F4CB010E94850A8C01C801BD
:10177000CDB7DEB7E0E10C949E09FC01E60FF71F40
:101780009C0122503109E217F30708F49DC0D901EA
:10179000CD91DC911197C617D70798F0C530D105C8
:1017A00030F3CE0104978617970708F3C61BD70BB3
:1017B0002297C193D1936D937C93CF010E94210B0B
:1017C000D6CF5B01AC1ABD0A4C018C0E9D1EA091B8
:1017D000FB01B091FC01512C412CF12CE12C109714
:1017E00031F58091F9019091FA018815990509F078
:1017F0005CC04616570608F058C0809107019091CA
:101800000801009741F48DB79EB740910B015091AC
:101810000C01841B950BE817F90708F055C0F093ED
:10182000FA01E093F901F90171836083A0CF8D91F2
:101830009C91119712966C90129713967C90139727
:10184000A815B90559F56C0142E0C40ED11CCA14A3
:10185000DB0420F1AC014A195B09DA0112961597F5
:1018600080F06282738251834083D9016D937C93AF
:10187000E114F10471F0D7011396FC93EE931297E3
:1018800076CF22968C0F9D1FF90191838083F301FF
:10189000EFCFF093FC01E093FB0169CF48165906A6
:1018A00008F42C017D01D3019ACFCB010E94850A57
:1018B0007C01009749F0AE01B8010E946F0CC8018D
:1018C0000E94210B870153CF10E000E050CF91110F
:1018D000089581548A5108F4805E855A0895FB0169
:1018E000DC0102C001900D9241505040D8F708959C
:1018F000FB01DC0101900D920020E1F70895F894BE
:02190000FFCF17
:10190200140114014600660000FD01800000000081
:1019120000F501150142014202B3015101A5014F37
:101922004E004F464600420073706565643A002CD3
:101932000072706D3A006E616E00696E66006F76BD
:0619420066000D0A000022
:00000001FF
