:100000000C945E000C9486000C9486000C94860080
:100010000C9486000C9486000C9486000C94860048
:100020000C9486000C9486000C9486000C94860038
:100030000C9486000C9486000C9486000C94860028
:100040000C948B020C9486000C94FB020C94D50249
:100050000C9486000C9486000C9486000C94860008
:100060000C9486000C9486000000000024002700F9
:100070002A0000000000250028002B0004040404CE
:100080000404040402020202020203030303030342
:10009000010204081020408001020408102001021F
:1000A00004081020000000080002010000030407FB
:1000B00000000000000000002D03190511241FBEE0
:1000C000CFEFD8E0DEBFCDBF22E0A4E5B1E001C0B4
:1000D0001D92A430B207E1F711E0A0E0B1E0EAED33
:1000E000FEE002C005900D92A435B107D9F710E0EB
:1000F000CDE5D0E004C02197FE010E946005CC351B
:10010000D107C9F70E9466030C9460070C940000A5
:10011000EBEAF0E02491E7E9F0E09491E3E8F0E025
:10012000E491EE23C9F0222339F0233001F1A8F441
:10013000213019F1223029F1F0E0EE0FFF1FEE58C7
:10014000FF4FA591B4912FB7F894EC91811126C07F
:1001500090959E239C932FBF08952730A9F02830B7
:10016000C9F0243049F7209180002F7D03C02091F1
:1001700080002F7720938000DFCF24B52F7724BD18
:10018000DBCF24B52F7DFBCF2091B0002F772093BC
:10019000B000D2CF2091B0002F7DF9CF9E2BDACFC7
:1001A000AF92BF92CF92DF92EF92FF920F931F9385
:1001B000CF93DF936C017B018B01040F151FEB01C3
:1001C0005E01AE18BF08C017D10759F06991D6017A
:1001D000ED91FC910190F081E02DC6010995892BEC
:1001E00079F7C501DF91CF911F910F91FF90EF90AB
:1001F000DF90CF90BF90AF900895FC01538D448D58
:10020000252F30E0842F90E0821B930B541710F0C1
:10021000CF96089501970895FC01918D828D9817CE
:1002200061F0A28DAE0FBF2FB11D5D968C91928DA6
:100230009F5F9F73928F90E008958FEF9FEF0895D7
:10024000FC01918D828D981731F0828DE80FF11DA0
:10025000858D90E008958FEF9FEF0895FC01918DBB
:10026000228D892F90E0805C9F4F821B91098F73B4
:10027000992708958DE591E00E942E0121E0892BB8
:1002800009F420E0822F089580E090E0892B29F086
:100290000E943A0181110C9400000895FC01A48D84
:1002A000A80FB92FB11DA35ABF4F2C91848D90E098
:1002B00001968F739927848FA689B7892C93A0897B
:1002C000B1898C91837080648C93938D848D981305
:1002D00006C00288F389E02D80818F7D8083089598
:1002E000EF92FF920F931F93CF93DF93EC0181E086
:1002F000888F9B8D8C8D98131AC0E889F98980812D
:1003000085FF15C09FB7F894EE89FF896083E8895F
:10031000F98980818370806480839FBF81E090E051
:10032000DF91CF911F910F91FF90EF900895F62EDE
:100330000B8D10E00F5F1F4F0F731127E02E8C8D78
:100340008E110CC00FB607FCFACFE889F9898081BD
:1003500085FFF5CFCE010E944E01F1CFEB8DEC0F62
:10036000FD2FF11DE35AFF4FF0829FB7F8940B8FDA
:10037000EA89FB8980818062CFCFCF93DF93EC0144
:10038000888D8823B9F0AA89BB89E889F9898C917D
:1003900085FD03C0808186FD0DC00FB607FCF7CF39
:1003A0008C9185FFF2CF808185FFEDCFCE010E9439
:1003B0004E01E9CFDF91CF910895CF93DF93FC01F8
:1003C00001900020E9F73197AF01481B590BBC01A0
:1003D0008DE591E00E94D000EC0142E050E068E140
:1003E00071E08DE591E00E94D0008C0F9D1FDF91A0
:1003F000CF910895EF92FF920F931F93CF93DF93C6
:100400000091FA011091FB01FC01C081D181F8013A
:1004100081918F018823B9F0082E000C990B0E945E
:1004200048077C018991082E000C990B0E9448070F
:10043000E816F90661F380E0DF91CF911F910F91EB
:10044000FF90EF90089581E0F7CFFC0180819181CA
:10045000009711F00C94020608950F931F93CF9309
:10046000DF93EC0188819981009759F02A813B81C3
:100470002617370730F081E0DF91CF911F910F9160
:1004800008958B016F5F7F4F0E948B06009759F094
:10049000998388831B830A832C813D81232B59F701
:1004A000FC011082E8CF80E0E7CFEF92FF920F933C
:1004B0001F93CF93DF93EC017B01FB0101900020A0
:1004C000E9F731978F01061B170BB8010E942D0227
:1004D00028813981811113C02115310519F0C90115
:1004E0000E940206198218821D821C821B821A82B7
:1004F000DF91CF911F910F91FF90EF9008951D8391
:100500000C83B701C901DF91CF911F910F91FF902B
:10051000EF900C9459071F920F920FB60F9211246F
:100520002F933F938F939F93AF93BF9380915901E4
:1005300090915A01A0915B01B0915C0130915801FA
:1005400023E0230F2D3758F50196A11DB11D2093EF
:1005500058018093590190935A01A0935B01B09385
:100560005C018091540190915501A0915601B09188
:1005700057010196A11DB11D80935401909355011F
:10058000A0935601B0935701BF91AF919F918F9166
:100590003F912F910F900FBE0F901F90189526E856
:1005A000230F0296A11DB11DD2CF1F920F920FB63D
:1005B0000F9211242F933F934F935F936F937F93E9
:1005C0008F939F93AF93BF93EF93FF938DE591E04C
:1005D0000E944E01FF91EF91BF91AF919F918F913A
:1005E0007F916F915F914F913F912F910F900FBE2F
:1005F0000F901F9018951F920F920FB60F92112413
:100600002F938F939F93EF93FF93E0916D01F09160
:100610006E018081E0917301F091740182FD1BC035
:100620009081809176018F5F8F732091770182177F
:1006300041F0E0917601F0E0E35AFE4F958F809310
:100640007601FF91EF919F918F912F910F900FBEA7
:100650000F901F9018958081F4CFEDE5F1E01382A3
:10066000128288EE93E0A0E0B0E084839583A683B5
:10067000B7838AE091E09183808385EC90E0958751
:10068000848784EC90E09787868780EC90E0918B5C
:10069000808B81EC90E0938B828B82EC90E0958B49
:1006A000848B86EC90E0978B868B118E128E138E46
:1006B000148EEAEFF1E01182108213821282158209
:1006C00014826AE171E0CF010C945502CF93DF935D
:1006D00000D000D000D0CDB7DEB7789484B582606A
:1006E00084BD84B5816084BD85B5826085BD85B5D6
:1006F000816085BD80916E00816080936E00109254
:1007000081008091810082608093810080918100CE
:10071000816080938100809180008160809380005F
:100720008091B10084608093B1008091B0008160BD
:100730008093B00080917A00846080937A008091E9
:100740007A00826080937A0080917A008160809341
:100750007A0080917A00806880937A001092C100BC
:10076000E7E9F0E02491E3E8F0E08491882399F050
:1007700090E0880F991FFC01E859FF4FA591B491B3
:10078000FC01EE58FF4F859194918FB7F894EC914E
:10079000E22BEC938FBF80E00E948800E0916D0116
:1007A000F0916E0182E08083E0916901F0916A012D
:1007B0001082E0916B01F0916C018FEC80831092BC
:1007C0007501E0917101F091720186E08083E09102
:1007D0006F01F0917001808180618083E0916F01F1
:1007E000F0917001808188608083E0916F01F091C9
:1007F0007001808180688083E0916F01F0917001C9
:1008000080818F7D80838BE191E00E94DD0180E01B
:10081000A82E80E0B82E8DE591E00E942E01892B54
:1008200009F4FBC08DE591E00E940C018A3019F0BB
:100830008D3009F0CEC0C090FA01D090FB01C114F8
:10084000D10449F00091FE011091FF0176010115DC
:10085000110509F04CC01A8219821C821B821E826B
:100860001D826EE271E0CE0101960E9455028091D8
:10087000FE019091FF012D813E8110E082179307C8
:1008800041F411E0892B29F0CE0101960E94FA0172
:10089000182FCE0101960E942502112309F463C08E
:1008A00081E00E94880081E391E00E94DD0170E018
:1008B00060E08AEF91E00E942D022091FA013091D0
:1008C000FB0181117CC02115310519F0C9010E947D
:1008D00002061092FB011092FA011092FF01109291
:1008E000FE011092FD011092FC0195CF74014701A9
:1008F0008FEF881A980AF7018081082E000C990B57
:100900000E941D05892B91F7015011090C0D1D1D29
:10091000F8018081082E000C990B0E941D05892B7F
:1009200031F00E151F0518F001501109F1CFA80183
:100930004F5F5F4F4E195F095093FF014093FE01D7
:10094000CE14DF0420F4B701C6010E945007E091E5
:10095000FA01F091FB018091FE019091FF01E80FF7
:10096000F91F108278CF1A8219821C821B821E8284
:100970001D8268E371E0CE0101960E9455028091CC
:10098000FE019091FF012D813E818217930741F472
:1009900011E0892B29F0CE0101960E94FA01182F4F
:1009A000CE0101960E94250284E491E0112309F40E
:1009B0007CCF80E00E9488008CE391E076CF10929B
:1009C000FF011092FE016AE171E0C9010E9459071E
:1009D00022CF89831A820091FE011091FF010F5FDF
:1009E0001F4FB8018AEF91E00E942D02882309F47D
:1009F00012CF2091FA013091FB018091FE0190917C
:100A0000FF01BE016F5F7F4F820F931F0E94590746
:100A10001093FF010093FE01FECEA114B10409F46E
:100A2000FACE0E943A01882309F4F5CE0E94000014
:100A3000F2CE8AEF91E00C94250291110C942605D8
:100A4000803219F089508550C8F708959927882772
:100A500008952F923F924F925F926F927F928F9262
:100A60009F92AF92BF92CF92DF92EF92FF920F933D
:100A70001F93CF93DF93CDB7DEB7CA1BDB0B0FB647
:100A8000F894DEBF0FBECDBF09942A883988488804
:100A90005F846E847D848C849B84AA84B984C8849A
:100AA000DF80EE80FD800C811B81AA81B981CE0F91
:100AB000D11D0FB6F894DEBF0FBECDBFED01089576
:100AC000EE0FFF1F0590F491E02D09940F931F93F3
:100AD000CF93DF938230910510F482E090E0E091B3
:100AE0000202F091030230E020E0B0E0A0E0309795
:100AF00099F42115310509F44AC0281B390B24301B
:100B00003105D8F58A819B816115710589F1FB0159
:100B100093838283FE0111C0408151810281138140
:100B200048175907E0F04817590799F4109761F0F2
:100B300012960C93129713961C933296CF01DF9165
:100B4000CF911F910F910895009302021093030219
:100B5000F4CF2115310551F04217530738F0A901A0
:100B6000DB019A01BD01DF01F801C1CFEF01F9CF2F
:100B70009093030280930202CDCFFE01E20FF31F98
:100B8000819391932250310939832883D7CF2091C3
:100B9000000230910102232B41F420910201309197
:100BA0000301309301022093000220910001309153
:100BB00001012115310541F42DB73EB740910401E3
:100BC00050910501241B350BE0910002F0910102C8
:100BD000E217F307A0F42E1B3F0B2817390778F014
:100BE000AC014E5F5F4F2417350748F04E0F5F1F73
:100BF0005093010240930002819391939FCFF0E0C4
:100C0000E0E09CCFCF93DF930097E9F0FC013297AF
:100C100013821282A0910202B0910302ED0130E032
:100C200020E01097A1F420813181820F931F209141
:100C30000002309101022817390709F061C0F093D2
:100C40000102E0930002DF91CF910895EA01CE17EF
:100C5000DF07E8F54A815B819E0141155105B1F737
:100C6000E901FB83EA8349915991C40FD51FEC1721
:100C7000FD0761F4808191810296840F951FE9013F
:100C800099838883828193819B838A83F0E0E0E06B
:100C900012968D919C9113970097B9F52D913C91E7
:100CA0001197CD010296820F931F2091000230917F
:100CB00001022817390739F6309751F510920302CF
:100CC00010920202B0930102A0930002BCCFD38322
:100CD000C28340815181840F951FC817D90761F4E1
:100CE0004E5F5F4F88819981480F591F5183408320
:100CF0008A819B81938382832115310509F0B0CFCE
:100D0000F0930302E09302029ECFFD01DC01C0CF0D
:100D100013821282D7CFB0E0A0E0E1E9F6E00C94B4
:100D20002B058C01009751F4CB010E9466058C01C4
:100D3000C801CDB7DEB7E0E10C944705FC01E60F32
:100D4000F71F9C0122503109E217F30708F49DC0F8
:100D5000D901CD91DC911197C617D70798F0C5300E
:100D6000D10530F3CE0104978617970708F3C61B09
:100D7000D70B2297C193D1936D937C93CF010E949F
:100D80000206D6CF5B01AC1ABD0A4C018C0E9D1E2B
:100D9000A0910202B0910302512C412CF12CE12CC4
:100DA000109731F580910002909101028815990504
:100DB00009F05CC04616570608F058C08091000143
:100DC00090910101009741F48DB79EB740910401C5
:100DD00050910501841B950BE817F90708F055C0E1
:100DE000F0930102E0930002F90171836083A0CFC8
:100DF0008D919C91119712966C90129713967C90FE
:100E00001397A815B90559F56C0142E0C40ED11C21
:100E1000CA14DB0420F1AC014A195B09DA0112960D
:100E2000159780F06282738251834083D9016D935C
:100E30007C93E114F10471F0D7011396FC93EE93C7
:100E4000129776CF22968C0F9D1FF9019183808394
:100E5000F301EFCFF0930302E093020269CF48164B
:100E6000590608F42C017D01D3019ACFCB010E94D1
:100E700066057C01009749F0AE01B8010E94500759
:100E8000C8010E940206870153CF10E000E050CF56
:100E90009111089581548A5108F4805E855A08950D
:100EA000FB01DC0102C001900D9241505040D8F787
:100EB0000895FB01DC0101900D920020E1F70895F7
:100EC00010E0CDE5D0E004C0FE010E94600521964F
:0A0ED000CE35D107C9F7F894FFCF23
:100EDA00000004028000000000007001D000FD0044
:100EEA00BD012E010C0120010D0A0053656E64201C
:100EFA00276F6E27206F7220276F666627006F6E36
:100F0A00004C4544204F4E006F6666004C45442015
:100F1A004F464600496E76616C696420636F6D6D59
:040F2A00616E640090
:00000001FF
